{
  "contractName": "BreitlexNFT",
  "abi": [
    {
      "inputs": [],
      "stateMutability": "nonpayable",
      "type": "constructor"
    },
    {
      "anonymous": false,
      "inputs": [
        {
          "indexed": true,
          "internalType": "address",
          "name": "owner",
          "type": "address"
        },
        {
          "indexed": true,
          "internalType": "address",
          "name": "approved",
          "type": "address"
        },
        {
          "indexed": true,
          "internalType": "uint256",
          "name": "tokenId",
          "type": "uint256"
        }
      ],
      "name": "Approval",
      "type": "event"
    },
    {
      "anonymous": false,
      "inputs": [
        {
          "indexed": true,
          "internalType": "address",
          "name": "owner",
          "type": "address"
        },
        {
          "indexed": true,
          "internalType": "address",
          "name": "operator",
          "type": "address"
        },
        {
          "indexed": false,
          "internalType": "bool",
          "name": "approved",
          "type": "bool"
        }
      ],
      "name": "ApprovalForAll",
      "type": "event"
    },
    {
      "anonymous": false,
      "inputs": [
        {
          "indexed": true,
          "internalType": "address",
          "name": "previousOwner",
          "type": "address"
        },
        {
          "indexed": true,
          "internalType": "address",
          "name": "newOwner",
          "type": "address"
        }
      ],
      "name": "OwnershipTransferred",
      "type": "event"
    },
    {
      "anonymous": false,
      "inputs": [
        {
          "indexed": false,
          "internalType": "address",
          "name": "account",
          "type": "address"
        }
      ],
      "name": "Paused",
      "type": "event"
    },
    {
      "anonymous": false,
      "inputs": [
        {
          "indexed": true,
          "internalType": "address",
          "name": "from",
          "type": "address"
        },
        {
          "indexed": true,
          "internalType": "address",
          "name": "to",
          "type": "address"
        },
        {
          "indexed": true,
          "internalType": "uint256",
          "name": "tokenId",
          "type": "uint256"
        }
      ],
      "name": "Transfer",
      "type": "event"
    },
    {
      "anonymous": false,
      "inputs": [
        {
          "indexed": false,
          "internalType": "address",
          "name": "account",
          "type": "address"
        }
      ],
      "name": "Unpaused",
      "type": "event"
    },
    {
      "inputs": [
        {
          "internalType": "address",
          "name": "to",
          "type": "address"
        },
        {
          "internalType": "uint256",
          "name": "tokenId",
          "type": "uint256"
        }
      ],
      "name": "approve",
      "outputs": [],
      "stateMutability": "nonpayable",
      "type": "function"
    },
    {
      "inputs": [
        {
          "internalType": "address",
          "name": "owner",
          "type": "address"
        }
      ],
      "name": "balanceOf",
      "outputs": [
        {
          "internalType": "uint256",
          "name": "balance",
          "type": "uint256"
        }
      ],
      "stateMutability": "view",
      "type": "function"
    },
    {
      "inputs": [
        {
          "internalType": "uint256",
          "name": "tokenId",
          "type": "uint256"
        }
      ],
      "name": "burn",
      "outputs": [],
      "stateMutability": "nonpayable",
      "type": "function"
    },
    {
      "inputs": [
        {
          "internalType": "uint256",
          "name": "tokenId",
          "type": "uint256"
        }
      ],
      "name": "getApproved",
      "outputs": [
        {
          "internalType": "address",
          "name": "",
          "type": "address"
        }
      ],
      "stateMutability": "view",
      "type": "function"
    },
    {
      "inputs": [
        {
          "internalType": "address",
          "name": "owner",
          "type": "address"
        },
        {
          "internalType": "address",
          "name": "operator",
          "type": "address"
        }
      ],
      "name": "isApprovedForAll",
      "outputs": [
        {
          "internalType": "bool",
          "name": "",
          "type": "bool"
        }
      ],
      "stateMutability": "view",
      "type": "function"
    },
    {
      "inputs": [],
      "name": "name",
      "outputs": [
        {
          "internalType": "string",
          "name": "",
          "type": "string"
        }
      ],
      "stateMutability": "view",
      "type": "function"
    },
    {
      "inputs": [],
      "name": "owner",
      "outputs": [
        {
          "internalType": "address",
          "name": "",
          "type": "address"
        }
      ],
      "stateMutability": "view",
      "type": "function"
    },
    {
      "inputs": [
        {
          "internalType": "uint256",
          "name": "tokenId",
          "type": "uint256"
        }
      ],
      "name": "ownerOf",
      "outputs": [
        {
          "internalType": "address",
          "name": "",
          "type": "address"
        }
      ],
      "stateMutability": "view",
      "type": "function"
    },
    {
      "inputs": [],
      "name": "paused",
      "outputs": [
        {
          "internalType": "bool",
          "name": "",
          "type": "bool"
        }
      ],
      "stateMutability": "view",
      "type": "function"
    },
    {
      "inputs": [],
      "name": "renounceOwnership",
      "outputs": [],
      "stateMutability": "nonpayable",
      "type": "function"
    },
    {
      "inputs": [
        {
          "internalType": "address",
          "name": "from",
          "type": "address"
        },
        {
          "internalType": "address",
          "name": "to",
          "type": "address"
        },
        {
          "internalType": "uint256",
          "name": "tokenId",
          "type": "uint256"
        }
      ],
      "name": "safeTransferFrom",
      "outputs": [],
      "stateMutability": "nonpayable",
      "type": "function"
    },
    {
      "inputs": [
        {
          "internalType": "address",
          "name": "from",
          "type": "address"
        },
        {
          "internalType": "address",
          "name": "to",
          "type": "address"
        },
        {
          "internalType": "uint256",
          "name": "tokenId",
          "type": "uint256"
        },
        {
          "internalType": "bytes",
          "name": "data",
          "type": "bytes"
        }
      ],
      "name": "safeTransferFrom",
      "outputs": [],
      "stateMutability": "nonpayable",
      "type": "function"
    },
    {
      "inputs": [
        {
          "internalType": "address",
          "name": "operator",
          "type": "address"
        },
        {
          "internalType": "bool",
          "name": "approved",
          "type": "bool"
        }
      ],
      "name": "setApprovalForAll",
      "outputs": [],
      "stateMutability": "nonpayable",
      "type": "function"
    },
    {
      "inputs": [],
      "name": "symbol",
      "outputs": [
        {
          "internalType": "string",
          "name": "",
          "type": "string"
        }
      ],
      "stateMutability": "view",
      "type": "function"
    },
    {
      "inputs": [
        {
          "internalType": "uint256",
          "name": "index",
          "type": "uint256"
        }
      ],
      "name": "tokenByIndex",
      "outputs": [
        {
          "internalType": "uint256",
          "name": "",
          "type": "uint256"
        }
      ],
      "stateMutability": "view",
      "type": "function"
    },
    {
      "inputs": [
        {
          "internalType": "address",
          "name": "owner",
          "type": "address"
        },
        {
          "internalType": "uint256",
          "name": "index",
          "type": "uint256"
        }
      ],
      "name": "tokenOfOwnerByIndex",
      "outputs": [
        {
          "internalType": "uint256",
          "name": "",
          "type": "uint256"
        }
      ],
      "stateMutability": "view",
      "type": "function"
    },
    {
      "inputs": [],
      "name": "totalSupply",
      "outputs": [
        {
          "internalType": "uint256",
          "name": "",
          "type": "uint256"
        }
      ],
      "stateMutability": "view",
      "type": "function"
    },
    {
      "inputs": [
        {
          "internalType": "address",
          "name": "from",
          "type": "address"
        },
        {
          "internalType": "address",
          "name": "to",
          "type": "address"
        },
        {
          "internalType": "uint256",
          "name": "tokenId",
          "type": "uint256"
        }
      ],
      "name": "transferFrom",
      "outputs": [],
      "stateMutability": "nonpayable",
      "type": "function"
    },
    {
      "inputs": [
        {
          "internalType": "address",
          "name": "newOwner",
          "type": "address"
        }
      ],
      "name": "transferOwnership",
      "outputs": [],
      "stateMutability": "nonpayable",
      "type": "function"
    },
    {
      "inputs": [
        {
          "internalType": "address",
          "name": "to",
          "type": "address"
        }
      ],
      "name": "safeMint",
      "outputs": [],
      "stateMutability": "nonpayable",
      "type": "function"
    },
    {
      "inputs": [],
      "name": "pause",
      "outputs": [],
      "stateMutability": "nonpayable",
      "type": "function"
    },
    {
      "inputs": [],
      "name": "unpause",
      "outputs": [],
      "stateMutability": "nonpayable",
      "type": "function"
    },
    {
      "inputs": [
        {
          "internalType": "uint256",
          "name": "tokenId",
          "type": "uint256"
        }
      ],
      "name": "tokenURI",
      "outputs": [
        {
          "internalType": "string",
          "name": "",
          "type": "string"
        }
      ],
      "stateMutability": "view",
      "type": "function"
    },
    {
      "inputs": [
        {
          "internalType": "bytes4",
          "name": "interfaceId",
          "type": "bytes4"
        }
      ],
      "name": "supportsInterface",
      "outputs": [
        {
          "internalType": "bool",
          "name": "",
          "type": "bool"
        }
      ],
      "stateMutability": "view",
      "type": "function"
    },
    {
      "inputs": [
        {
          "internalType": "address",
          "name": "_to",
          "type": "address"
        },
        {
          "internalType": "string",
          "name": "tokenURI_",
          "type": "string"
        }
      ],
      "name": "mint",
      "outputs": [],
      "stateMutability": "nonpayable",
      "type": "function"
    }
  ],
  "bytecode": "0x60806040523480156200001157600080fd5b506040518060400160405280600b81526020017f42726569746c65784e46540000000000000000000000000000000000000000008152506040518060400160405280600481526020017f424e46540000000000000000000000000000000000000000000000000000000081525081600090816200008f919062000445565b508060019081620000a1919062000445565b5050506000600b60006101000a81548160ff021916908315150217905550620000f1620000dc620000f7640100000000026401000000009004565b620000ff640100000000026401000000009004565b6200052c565b600033905090565b6000600b60019054906101000a900473ffffffffffffffffffffffffffffffffffffffff16905081600b60016101000a81548173ffffffffffffffffffffffffffffffffffffffff021916908373ffffffffffffffffffffffffffffffffffffffff1602179055508173ffffffffffffffffffffffffffffffffffffffff168173ffffffffffffffffffffffffffffffffffffffff167f8be0079c531659141344cd1fd0a4f28419497f9722a3daafe3b4186f6b6457e060405160405180910390a35050565b600081519050919050565b7f4e487b7100000000000000000000000000000000000000000000000000000000600052604160045260246000fd5b7f4e487b7100000000000000000000000000000000000000000000000000000000600052602260045260246000fd5b600060028204905060018216806200024757607f821691505b6020821081036200025d576200025c620001ff565b5b50919050565b60008190508160005260206000209050919050565b60006020601f8301049050919050565b60008160020a8302905092915050565b600060088302620002ca7fffffffffffffffffffffffffffffffffffffffffffffffffffffffffffffffff8262000288565b620002d6868362000288565b95508019841693508086168417925050509392505050565b6000819050919050565b6000819050919050565b6000620003236200031d6200031784620002ee565b620002f8565b620002ee565b9050919050565b6000819050919050565b6200033f8362000302565b620003576200034e826200032a565b84845462000298565b825550505050565b600090565b6200036e6200035f565b6200037b81848462000334565b505050565b5b81811015620003a3576200039760008262000364565b60018101905062000381565b5050565b601f821115620003f257620003bc8162000263565b620003c78462000278565b81016020851015620003d7578190505b620003ef620003e68562000278565b83018262000380565b50505b505050565b60008160020a8304905092915050565b60006200041a60001984600802620003f7565b1980831691505092915050565b600062000435838362000407565b9150826002028217905092915050565b6200045082620001c5565b67ffffffffffffffff8111156200046c576200046b620001d0565b5b6200047882546200022e565b62000485828285620003a7565b600060209050601f831160018114620004bd5760008415620004a8578287015190505b620004b4858262000427565b86555062000524565b601f198416620004cd8662000263565b60005b82811015620004f757848901518255600182019150602085019450602081019050620004d0565b8683101562000517578489015162000513601f89168262000407565b8355505b6001600288020188555050505b505050505050565b613bdf806200053c6000396000f3fe608060405234801561001057600080fd5b5060043610610190576000357c0100000000000000000000000000000000000000000000000000000000900480635c975abb116100fb57806395d89b41116100b4578063c87b56dd1161008e578063c87b56dd1461042d578063d0def5211461045d578063e985e9c514610479578063f2fde38b146104a957610190565b806395d89b41146103d7578063a22cb465146103f5578063b88d4fde1461041157610190565b80635c975abb146103275780636352211e1461034557806370a0823114610375578063715018a6146103a55780638456cb59146103af5780638da5cb5b146103b957610190565b80632f745c591161014d5780632f745c59146102695780633f4ba83a1461029957806340d097c3146102a357806342842e0e146102bf57806342966c68146102db5780634f6ccce7146102f757610190565b806301ffc9a71461019557806306fdde03146101c5578063081812fc146101e3578063095ea7b31461021357806318160ddd1461022f57806323b872dd1461024d575b600080fd5b6101af60048036038101906101aa919061262f565b6104c5565b6040516101bc9190612677565b60405180910390f35b6101cd6104d7565b6040516101da9190612722565b60405180910390f35b6101fd60048036038101906101f8919061277a565b610569565b60405161020a91906127e8565b60405180910390f35b61022d6004803603810190610228919061282f565b6105af565b005b6102376106c6565b604051610244919061287e565b60405180910390f35b61026760048036038101906102629190612899565b6106d3565b005b610283600480360381019061027e919061282f565b610733565b604051610290919061287e565b60405180910390f35b6102a16107d8565b005b6102bd60048036038101906102b891906128ec565b6107ea565b005b6102d960048036038101906102d49190612899565b610812565b005b6102f560048036038101906102f0919061277a565b610832565b005b610311600480360381019061030c919061277a565b61088e565b60405161031e919061287e565b60405180910390f35b61032f6108ff565b60405161033c9190612677565b60405180910390f35b61035f600480360381019061035a919061277a565b610916565b60405161036c91906127e8565b60405180910390f35b61038f600480360381019061038a91906128ec565b6109c7565b60405161039c919061287e565b60405180910390f35b6103ad610a7e565b005b6103b7610a92565b005b6103c1610aa4565b6040516103ce91906127e8565b60405180910390f35b6103df610ace565b6040516103ec9190612722565b60405180910390f35b61040f600480360381019061040a9190612945565b610b60565b005b61042b60048036038101906104269190612aba565b610b76565b005b6104476004803603810190610442919061277a565b610bd8565b6040516104549190612722565b60405180910390f35b61047760048036038101906104729190612bde565b610bea565b005b610493600480360381019061048e9190612c3a565b610c26565b6040516104a09190612677565b60405180910390f35b6104c360048036038101906104be91906128ec565b610cba565b005b60006104d082610d3d565b9050919050565b6060600080546104e690612ca9565b80601f016020809104026020016040519081016040528092919081815260200182805461051290612ca9565b801561055f5780601f106105345761010080835404028352916020019161055f565b820191906000526020600020905b81548152906001019060200180831161054257829003601f168201915b5050505050905090565b600061057482610db7565b6004600083815260200190815260200160002060009054906101000a900473ffffffffffffffffffffffffffffffffffffffff169050919050565b60006105ba82610916565b90508073ffffffffffffffffffffffffffffffffffffffff168373ffffffffffffffffffffffffffffffffffffffff160361062a576040517f08c379a000000000000000000000000000000000000000000000000000000000815260040161062190612d4c565b60405180910390fd5b8073ffffffffffffffffffffffffffffffffffffffff16610649610e02565b73ffffffffffffffffffffffffffffffffffffffff161480610678575061067781610672610e02565b610c26565b5b6106b7576040517f08c379a00000000000000000000000000000000000000000000000000000000081526004016106ae90612dde565b60405180910390fd5b6106c18383610e0a565b505050565b6000600880549050905090565b6106e46106de610e02565b82610ec3565b610723576040517f08c379a000000000000000000000000000000000000000000000000000000000815260040161071a90612e70565b60405180910390fd5b61072e838383610f58565b505050565b600061073e836109c7565b821061077f576040517f08c379a000000000000000000000000000000000000000000000000000000000815260040161077690612f02565b60405180910390fd5b600660008473ffffffffffffffffffffffffffffffffffffffff1673ffffffffffffffffffffffffffffffffffffffff168152602001908152602001600020600083815260200190815260200160002054905092915050565b6107e06111be565b6107e861123c565b565b6107f26111be565b61080581610800600c61129f565b6112ad565b61080f600c6112cb565b50565b61082d83838360405180602001604052806000815250610b76565b505050565b61084361083d610e02565b82610ec3565b610882576040517f08c379a000000000000000000000000000000000000000000000000000000000815260040161087990612e70565b60405180910390fd5b61088b816112e1565b50565b60006108986106c6565b82106108d9576040517f08c379a00000000000000000000000000000000000000000000000000000000081526004016108d090612f94565b60405180910390fd5b600882815481106108ed576108ec612fb4565b5b90600052602060002001549050919050565b6000600b60009054906101000a900460ff16905090565b6000806002600084815260200190815260200160002060009054906101000a900473ffffffffffffffffffffffffffffffffffffffff169050600073ffffffffffffffffffffffffffffffffffffffff168173ffffffffffffffffffffffffffffffffffffffff16036109be576040517f08c379a00000000000000000000000000000000000000000000000000000000081526004016109b59061302f565b60405180910390fd5b80915050919050565b60008073ffffffffffffffffffffffffffffffffffffffff168273ffffffffffffffffffffffffffffffffffffffff1603610a37576040517f08c379a0000000000000000000000000000000000000000000000000000000008152600401610a2e906130c1565b60405180910390fd5b600360008373ffffffffffffffffffffffffffffffffffffffff1673ffffffffffffffffffffffffffffffffffffffff168152602001908152602001600020549050919050565b610a866111be565b610a9060006112ed565b565b610a9a6111be565b610aa26113b3565b565b6000600b60019054906101000a900473ffffffffffffffffffffffffffffffffffffffff16905090565b606060018054610add90612ca9565b80601f0160208091040260200160405190810160405280929190818152602001828054610b0990612ca9565b8015610b565780601f10610b2b57610100808354040283529160200191610b56565b820191906000526020600020905b815481529060010190602001808311610b3957829003601f168201915b5050505050905090565b610b72610b6b610e02565b8383611416565b5050565b610b87610b81610e02565b83610ec3565b610bc6576040517f08c379a0000000000000000000000000000000000000000000000000000000008152600401610bbd90612e70565b60405180910390fd5b610bd284848484611582565b50505050565b6060610be3826115de565b9050919050565b610bf26111be565b610c0582610c00600c61129f565b6112ad565b610c18610c12600c61129f565b826116f0565b610c22600c6112cb565b5050565b6000600560008473ffffffffffffffffffffffffffffffffffffffff1673ffffffffffffffffffffffffffffffffffffffff16815260200190815260200160002060008373ffffffffffffffffffffffffffffffffffffffff1673ffffffffffffffffffffffffffffffffffffffff16815260200190815260200160002060009054906101000a900460ff16905092915050565b610cc26111be565b600073ffffffffffffffffffffffffffffffffffffffff168173ffffffffffffffffffffffffffffffffffffffff1603610d31576040517f08c379a0000000000000000000000000000000000000000000000000000000008152600401610d2890613153565b60405180910390fd5b610d3a816112ed565b50565b60007f780e9d63000000000000000000000000000000000000000000000000000000007bffffffffffffffffffffffffffffffffffffffffffffffffffffffff1916827bffffffffffffffffffffffffffffffffffffffffffffffffffffffff19161480610db05750610daf8261175d565b5b9050919050565b610dc08161183f565b610dff576040517f08c379a0000000000000000000000000000000000000000000000000000000008152600401610df69061302f565b60405180910390fd5b50565b600033905090565b816004600083815260200190815260200160002060006101000a81548173ffffffffffffffffffffffffffffffffffffffff021916908373ffffffffffffffffffffffffffffffffffffffff160217905550808273ffffffffffffffffffffffffffffffffffffffff16610e7d83610916565b73ffffffffffffffffffffffffffffffffffffffff167f8c5be1e5ebec7d5bd14f71427d1e84f3dd0314c0f7b2291e5b200ac8c7c3b92560405160405180910390a45050565b600080610ecf83610916565b90508073ffffffffffffffffffffffffffffffffffffffff168473ffffffffffffffffffffffffffffffffffffffff161480610f115750610f108185610c26565b5b80610f4f57508373ffffffffffffffffffffffffffffffffffffffff16610f3784610569565b73ffffffffffffffffffffffffffffffffffffffff16145b91505092915050565b8273ffffffffffffffffffffffffffffffffffffffff16610f7882610916565b73ffffffffffffffffffffffffffffffffffffffff1614610fce576040517f08c379a0000000000000000000000000000000000000000000000000000000008152600401610fc5906131e5565b60405180910390fd5b600073ffffffffffffffffffffffffffffffffffffffff168273ffffffffffffffffffffffffffffffffffffffff160361103d576040517f08c379a000000000000000000000000000000000000000000000000000000000815260040161103490613277565b60405180910390fd5b6110488383836118ab565b611053600082610e0a565b6001600360008573ffffffffffffffffffffffffffffffffffffffff1673ffffffffffffffffffffffffffffffffffffffff16815260200190815260200160002060008282546110a391906132c6565b925050819055506001600360008473ffffffffffffffffffffffffffffffffffffffff1673ffffffffffffffffffffffffffffffffffffffff16815260200190815260200160002060008282546110fa91906132fa565b92505081905550816002600083815260200190815260200160002060006101000a81548173ffffffffffffffffffffffffffffffffffffffff021916908373ffffffffffffffffffffffffffffffffffffffff160217905550808273ffffffffffffffffffffffffffffffffffffffff168473ffffffffffffffffffffffffffffffffffffffff167fddf252ad1be2c89b69c2b068fc378daa952ba7f163c4a11628f55a4df523b3ef60405160405180910390a46111b98383836118c3565b505050565b6111c6610e02565b73ffffffffffffffffffffffffffffffffffffffff166111e4610aa4565b73ffffffffffffffffffffffffffffffffffffffff161461123a576040517f08c379a00000000000000000000000000000000000000000000000000000000081526004016112319061337a565b60405180910390fd5b565b6112446118c8565b6000600b60006101000a81548160ff0219169083151502179055507f5db9ee0a495bf2e6ff9c91a7834c1ba4fdd244a5e8aa4e537bd38aeae4b073aa611288610e02565b60405161129591906127e8565b60405180910390a1565b600081600001549050919050565b6112c7828260405180602001604052806000815250611911565b5050565b6001816000016000828254019250508190555050565b6112ea8161196c565b50565b6000600b60019054906101000a900473ffffffffffffffffffffffffffffffffffffffff16905081600b60016101000a81548173ffffffffffffffffffffffffffffffffffffffff021916908373ffffffffffffffffffffffffffffffffffffffff1602179055508173ffffffffffffffffffffffffffffffffffffffff168173ffffffffffffffffffffffffffffffffffffffff167f8be0079c531659141344cd1fd0a4f28419497f9722a3daafe3b4186f6b6457e060405160405180910390a35050565b6113bb6119bf565b6001600b60006101000a81548160ff0219169083151502179055507f62e78cea01bee320cd4e420270b5ea74000d11b0c9f74754ebdbfc544b05a2586113ff610e02565b60405161140c91906127e8565b60405180910390a1565b8173ffffffffffffffffffffffffffffffffffffffff168373ffffffffffffffffffffffffffffffffffffffff1603611484576040517f08c379a000000000000000000000000000000000000000000000000000000000815260040161147b906133e6565b60405180910390fd5b80600560008573ffffffffffffffffffffffffffffffffffffffff1673ffffffffffffffffffffffffffffffffffffffff16815260200190815260200160002060008473ffffffffffffffffffffffffffffffffffffffff1673ffffffffffffffffffffffffffffffffffffffff16815260200190815260200160002060006101000a81548160ff0219169083151502179055508173ffffffffffffffffffffffffffffffffffffffff168373ffffffffffffffffffffffffffffffffffffffff167f17307eab39ab6107e8899845ad3d59bd9653f200f220920489ca2b5937696c31836040516115759190612677565b60405180910390a3505050565b61158d848484610f58565b61159984848484611a09565b6115d8576040517f08c379a00000000000000000000000000000000000000000000000000000000081526004016115cf90613478565b60405180910390fd5b50505050565b60606115e982610db7565b6000600a6000848152602001908152602001600020805461160990612ca9565b80601f016020809104026020016040519081016040528092919081815260200182805461163590612ca9565b80156116825780601f1061165757610100808354040283529160200191611682565b820191906000526020600020905b81548152906001019060200180831161166557829003601f168201915b505050505090506000611693611bc8565b905060008151036116a85781925050506116eb565b6000825111156116dd5780826040516020016116c59291906134d4565b604051602081830303815290604052925050506116eb565b6116e684611bdf565b925050505b919050565b6116f98261183f565b611738576040517f08c379a000000000000000000000000000000000000000000000000000000000815260040161172f9061356a565b60405180910390fd5b80600a60008481526020019081526020016000209081611758919061373c565b505050565b60007f80ac58cd000000000000000000000000000000000000000000000000000000007bffffffffffffffffffffffffffffffffffffffffffffffffffffffff1916827bffffffffffffffffffffffffffffffffffffffffffffffffffffffff1916148061182857507f5b5e139f000000000000000000000000000000000000000000000000000000007bffffffffffffffffffffffffffffffffffffffffffffffffffffffff1916827bffffffffffffffffffffffffffffffffffffffffffffffffffffffff1916145b80611838575061183782611c47565b5b9050919050565b60008073ffffffffffffffffffffffffffffffffffffffff166002600084815260200190815260200160002060009054906101000a900473ffffffffffffffffffffffffffffffffffffffff1673ffffffffffffffffffffffffffffffffffffffff1614159050919050565b6118b36119bf565b6118be838383611cb1565b505050565b505050565b6118d06108ff565b61190f576040517f08c379a00000000000000000000000000000000000000000000000000000000081526004016119069061385a565b60405180910390fd5b565b61191b8383611dc3565b6119286000848484611a09565b611967576040517f08c379a000000000000000000000000000000000000000000000000000000000815260040161195e90613478565b60405180910390fd5b505050565b61197581611f9c565b6000600a6000838152602001908152602001600020805461199590612ca9565b9050146119bc57600a600082815260200190815260200160002060006119bb9190612566565b5b50565b6119c76108ff565b15611a07576040517f08c379a00000000000000000000000000000000000000000000000000000000081526004016119fe906138c6565b60405180910390fd5b565b6000611a2a8473ffffffffffffffffffffffffffffffffffffffff166120b9565b15611bbb578373ffffffffffffffffffffffffffffffffffffffff1663150b7a02611a53610e02565b8786866040518563ffffffff167c0100000000000000000000000000000000000000000000000000000000028152600401611a91949392919061393b565b6020604051808303816000875af1925050508015611acd57506040513d601f19601f82011682018060405250810190611aca919061399c565b60015b611b4f573d8060008114611afd576040519150601f19603f3d011682016040523d82523d6000602084013e611b02565b606091505b506000815103611b47576040517f08c379a0000000000000000000000000000000000000000000000000000000008152600401611b3e90613478565b60405180910390fd5b805181602001fd5b63150b7a027c0100000000000000000000000000000000000000000000000000000000027bffffffffffffffffffffffffffffffffffffffffffffffffffffffff1916817bffffffffffffffffffffffffffffffffffffffffffffffffffffffff191614915050611bc0565b600190505b949350505050565b606060405180602001604052806000815250905090565b6060611bea82610db7565b6000611bf4611bc8565b90506000815111611c145760405180602001604052806000815250611c3f565b80611c1e846120dc565b604051602001611c2f9291906134d4565b6040516020818303038152906040525b915050919050565b60007f01ffc9a7000000000000000000000000000000000000000000000000000000007bffffffffffffffffffffffffffffffffffffffffffffffffffffffff1916827bffffffffffffffffffffffffffffffffffffffffffffffffffffffff1916149050919050565b611cbc83838361225b565b600073ffffffffffffffffffffffffffffffffffffffff168373ffffffffffffffffffffffffffffffffffffffff1603611cfe57611cf981612260565b611d3d565b8173ffffffffffffffffffffffffffffffffffffffff168373ffffffffffffffffffffffffffffffffffffffff1614611d3c57611d3b83826122a9565b5b5b600073ffffffffffffffffffffffffffffffffffffffff168273ffffffffffffffffffffffffffffffffffffffff1603611d7f57611d7a81612416565b611dbe565b8273ffffffffffffffffffffffffffffffffffffffff168273ffffffffffffffffffffffffffffffffffffffff1614611dbd57611dbc82826124e7565b5b5b505050565b600073ffffffffffffffffffffffffffffffffffffffff168273ffffffffffffffffffffffffffffffffffffffff1603611e32576040517f08c379a0000000000000000000000000000000000000000000000000000000008152600401611e2990613a15565b60405180910390fd5b611e3b8161183f565b15611e7b576040517f08c379a0000000000000000000000000000000000000000000000000000000008152600401611e7290613a81565b60405180910390fd5b611e87600083836118ab565b6001600360008473ffffffffffffffffffffffffffffffffffffffff1673ffffffffffffffffffffffffffffffffffffffff1681526020019081526020016000206000828254611ed791906132fa565b92505081905550816002600083815260200190815260200160002060006101000a81548173ffffffffffffffffffffffffffffffffffffffff021916908373ffffffffffffffffffffffffffffffffffffffff160217905550808273ffffffffffffffffffffffffffffffffffffffff16600073ffffffffffffffffffffffffffffffffffffffff167fddf252ad1be2c89b69c2b068fc378daa952ba7f163c4a11628f55a4df523b3ef60405160405180910390a4611f98600083836118c3565b5050565b6000611fa782610916565b9050611fb5816000846118ab565b611fc0600083610e0a565b6001600360008373ffffffffffffffffffffffffffffffffffffffff1673ffffffffffffffffffffffffffffffffffffffff168152602001908152602001600020600082825461201091906132c6565b925050819055506002600083815260200190815260200160002060006101000a81549073ffffffffffffffffffffffffffffffffffffffff021916905581600073ffffffffffffffffffffffffffffffffffffffff168273ffffffffffffffffffffffffffffffffffffffff167fddf252ad1be2c89b69c2b068fc378daa952ba7f163c4a11628f55a4df523b3ef60405160405180910390a46120b5816000846118c3565b5050565b6000808273ffffffffffffffffffffffffffffffffffffffff163b119050919050565b606060008203612123576040518060400160405280600181526020017f30000000000000000000000000000000000000000000000000000000000000008152509050612256565b600082905060005b6000821461215557808061213e90613aa1565b915050600a8261214e9190613b18565b915061212b565b60008167ffffffffffffffff8111156121715761217061298f565b5b6040519080825280601f01601f1916602001820160405280156121a35781602001600182028036833780820191505090505b5090505b6000851461224f576001826121bc91906132c6565b9150600a856121cb9190613b49565b60306121d791906132fa565b7f01000000000000000000000000000000000000000000000000000000000000000281838151811061220c5761220b612fb4565b5b60200101907effffffffffffffffffffffffffffffffffffffffffffffffffffffffffffff1916908160001a905350600a856122489190613b18565b94506121a7565b8093505050505b919050565b505050565b6008805490506009600083815260200190815260200160002081905550600881908060018154018082558091505060019003906000526020600020016000909190919091505550565b600060016122b6846109c7565b6122c091906132c6565b90506000600760008481526020019081526020016000205490508181146123a5576000600660008673ffffffffffffffffffffffffffffffffffffffff1673ffffffffffffffffffffffffffffffffffffffff168152602001908152602001600020600084815260200190815260200160002054905080600660008773ffffffffffffffffffffffffffffffffffffffff1673ffffffffffffffffffffffffffffffffffffffff168152602001908152602001600020600084815260200190815260200160002081905550816007600083815260200190815260200160002081905550505b6007600084815260200190815260200160002060009055600660008573ffffffffffffffffffffffffffffffffffffffff1673ffffffffffffffffffffffffffffffffffffffff16815260200190815260200160002060008381526020019081526020016000206000905550505050565b6000600160088054905061242a91906132c6565b905060006009600084815260200190815260200160002054905060006008838154811061245a57612459612fb4565b5b90600052602060002001549050806008838154811061247c5761247b612fb4565b5b9060005260206000200181905550816009600083815260200190815260200160002081905550600960008581526020019081526020016000206000905560088054806124cb576124ca613b7a565b5b6001900381819060005260206000200160009055905550505050565b60006124f2836109c7565b905081600660008573ffffffffffffffffffffffffffffffffffffffff1673ffffffffffffffffffffffffffffffffffffffff168152602001908152602001600020600083815260200190815260200160002081905550806007600084815260200190815260200160002081905550505050565b50805461257290612ca9565b6000825580601f1061258457506125a3565b601f0160209004906000526020600020908101906125a291906125a6565b5b50565b5b808211156125bf5760008160009055506001016125a7565b5090565b6000604051905090565b600080fd5b600080fd5b60007fffffffff0000000000000000000000000000000000000000000000000000000082169050919050565b61260c816125d7565b811461261757600080fd5b50565b60008135905061262981612603565b92915050565b600060208284031215612645576126446125cd565b5b60006126538482850161261a565b91505092915050565b60008115159050919050565b6126718161265c565b82525050565b600060208201905061268c6000830184612668565b92915050565b600081519050919050565b600082825260208201905092915050565b60005b838110156126cc5780820151818401526020810190506126b1565b60008484015250505050565b6000601f19601f8301169050919050565b60006126f482612692565b6126fe818561269d565b935061270e8185602086016126ae565b612717816126d8565b840191505092915050565b6000602082019050818103600083015261273c81846126e9565b905092915050565b6000819050919050565b61275781612744565b811461276257600080fd5b50565b6000813590506127748161274e565b92915050565b6000602082840312156127905761278f6125cd565b5b600061279e84828501612765565b91505092915050565b600073ffffffffffffffffffffffffffffffffffffffff82169050919050565b60006127d2826127a7565b9050919050565b6127e2816127c7565b82525050565b60006020820190506127fd60008301846127d9565b92915050565b61280c816127c7565b811461281757600080fd5b50565b60008135905061282981612803565b92915050565b60008060408385031215612846576128456125cd565b5b60006128548582860161281a565b925050602061286585828601612765565b9150509250929050565b61287881612744565b82525050565b6000602082019050612893600083018461286f565b92915050565b6000806000606084860312156128b2576128b16125cd565b5b60006128c08682870161281a565b93505060206128d18682870161281a565b92505060406128e286828701612765565b9150509250925092565b600060208284031215612902576129016125cd565b5b60006129108482850161281a565b91505092915050565b6129228161265c565b811461292d57600080fd5b50565b60008135905061293f81612919565b92915050565b6000806040838503121561295c5761295b6125cd565b5b600061296a8582860161281a565b925050602061297b85828601612930565b9150509250929050565b600080fd5b600080fd5b7f4e487b7100000000000000000000000000000000000000000000000000000000600052604160045260246000fd5b6129c7826126d8565b810181811067ffffffffffffffff821117156129e6576129e561298f565b5b80604052505050565b60006129f96125c3565b9050612a0582826129be565b919050565b600067ffffffffffffffff821115612a2557612a2461298f565b5b612a2e826126d8565b9050602081019050919050565b82818337600083830152505050565b6000612a5d612a5884612a0a565b6129ef565b905082815260208101848484011115612a7957612a7861298a565b5b612a84848285612a3b565b509392505050565b600082601f830112612aa157612aa0612985565b5b8135612ab1848260208601612a4a565b91505092915050565b60008060008060808587031215612ad457612ad36125cd565b5b6000612ae28782880161281a565b9450506020612af38782880161281a565b9350506040612b0487828801612765565b925050606085013567ffffffffffffffff811115612b2557612b246125d2565b5b612b3187828801612a8c565b91505092959194509250565b600067ffffffffffffffff821115612b5857612b5761298f565b5b612b61826126d8565b9050602081019050919050565b6000612b81612b7c84612b3d565b6129ef565b905082815260208101848484011115612b9d57612b9c61298a565b5b612ba8848285612a3b565b509392505050565b600082601f830112612bc557612bc4612985565b5b8135612bd5848260208601612b6e565b91505092915050565b60008060408385031215612bf557612bf46125cd565b5b6000612c038582860161281a565b925050602083013567ffffffffffffffff811115612c2457612c236125d2565b5b612c3085828601612bb0565b9150509250929050565b60008060408385031215612c5157612c506125cd565b5b6000612c5f8582860161281a565b9250506020612c708582860161281a565b9150509250929050565b7f4e487b7100000000000000000000000000000000000000000000000000000000600052602260045260246000fd5b60006002820490506001821680612cc157607f821691505b602082108103612cd457612cd3612c7a565b5b50919050565b7f4552433732313a20617070726f76616c20746f2063757272656e74206f776e6560008201527f7200000000000000000000000000000000000000000000000000000000000000602082015250565b6000612d3660218361269d565b9150612d4182612cda565b604082019050919050565b60006020820190508181036000830152612d6581612d29565b9050919050565b7f4552433732313a20617070726f76652063616c6c6572206973206e6f7420746f60008201527f6b656e206f776e6572206e6f7220617070726f76656420666f7220616c6c0000602082015250565b6000612dc8603e8361269d565b9150612dd382612d6c565b604082019050919050565b60006020820190508181036000830152612df781612dbb565b9050919050565b7f4552433732313a2063616c6c6572206973206e6f7420746f6b656e206f776e6560008201527f72206e6f7220617070726f766564000000000000000000000000000000000000602082015250565b6000612e5a602e8361269d565b9150612e6582612dfe565b604082019050919050565b60006020820190508181036000830152612e8981612e4d565b9050919050565b7f455243373231456e756d657261626c653a206f776e657220696e646578206f7560008201527f74206f6620626f756e6473000000000000000000000000000000000000000000602082015250565b6000612eec602b8361269d565b9150612ef782612e90565b604082019050919050565b60006020820190508181036000830152612f1b81612edf565b9050919050565b7f455243373231456e756d657261626c653a20676c6f62616c20696e646578206f60008201527f7574206f6620626f756e64730000000000000000000000000000000000000000602082015250565b6000612f7e602c8361269d565b9150612f8982612f22565b604082019050919050565b60006020820190508181036000830152612fad81612f71565b9050919050565b7f4e487b7100000000000000000000000000000000000000000000000000000000600052603260045260246000fd5b7f4552433732313a20696e76616c696420746f6b656e2049440000000000000000600082015250565b600061301960188361269d565b915061302482612fe3565b602082019050919050565b600060208201905081810360008301526130488161300c565b9050919050565b7f4552433732313a2061646472657373207a65726f206973206e6f74206120766160008201527f6c6964206f776e65720000000000000000000000000000000000000000000000602082015250565b60006130ab60298361269d565b91506130b68261304f565b604082019050919050565b600060208201905081810360008301526130da8161309e565b9050919050565b7f4f776e61626c653a206e6577206f776e657220697320746865207a65726f206160008201527f6464726573730000000000000000000000000000000000000000000000000000602082015250565b600061313d60268361269d565b9150613148826130e1565b604082019050919050565b6000602082019050818103600083015261316c81613130565b9050919050565b7f4552433732313a207472616e736665722066726f6d20696e636f72726563742060008201527f6f776e6572000000000000000000000000000000000000000000000000000000602082015250565b60006131cf60258361269d565b91506131da82613173565b604082019050919050565b600060208201905081810360008301526131fe816131c2565b9050919050565b7f4552433732313a207472616e7366657220746f20746865207a65726f2061646460008201527f7265737300000000000000000000000000000000000000000000000000000000602082015250565b600061326160248361269d565b915061326c82613205565b604082019050919050565b6000602082019050818103600083015261329081613254565b9050919050565b7f4e487b7100000000000000000000000000000000000000000000000000000000600052601160045260246000fd5b60006132d182612744565b91506132dc83612744565b92508282039050818111156132f4576132f3613297565b5b92915050565b600061330582612744565b915061331083612744565b925082820190508082111561332857613327613297565b5b92915050565b7f4f776e61626c653a2063616c6c6572206973206e6f7420746865206f776e6572600082015250565b600061336460208361269d565b915061336f8261332e565b602082019050919050565b6000602082019050818103600083015261339381613357565b9050919050565b7f4552433732313a20617070726f766520746f2063616c6c657200000000000000600082015250565b60006133d060198361269d565b91506133db8261339a565b602082019050919050565b600060208201905081810360008301526133ff816133c3565b9050919050565b7f4552433732313a207472616e7366657220746f206e6f6e20455243373231526560008201527f63656976657220696d706c656d656e7465720000000000000000000000000000602082015250565b600061346260328361269d565b915061346d82613406565b604082019050919050565b6000602082019050818103600083015261349181613455565b9050919050565b600081905092915050565b60006134ae82612692565b6134b88185613498565b93506134c88185602086016126ae565b80840191505092915050565b60006134e082856134a3565b91506134ec82846134a3565b91508190509392505050565b7f45524337323155524953746f726167653a2055524920736574206f66206e6f6e60008201527f6578697374656e7420746f6b656e000000000000000000000000000000000000602082015250565b6000613554602e8361269d565b915061355f826134f8565b604082019050919050565b6000602082019050818103600083015261358381613547565b9050919050565b60008190508160005260206000209050919050565b60006020601f8301049050919050565b60008160020a8302905092915050565b6000600883026135ef7fffffffffffffffffffffffffffffffffffffffffffffffffffffffffffffffff826135af565b6135f986836135af565b95508019841693508086168417925050509392505050565b6000819050919050565b600061363661363161362c84612744565b613611565b612744565b9050919050565b6000819050919050565b6136508361361b565b61366461365c8261363d565b8484546135bf565b825550505050565b600090565b61367961366c565b613684818484613647565b505050565b5b818110156136a85761369d600082613671565b60018101905061368a565b5050565b601f8211156136ed576136be8161358a565b6136c78461359f565b810160208510156136d6578190505b6136ea6136e28561359f565b830182613689565b50505b505050565b60008160020a8304905092915050565b6000613713600019846008026136f2565b1980831691505092915050565b600061372c8383613702565b9150826002028217905092915050565b61374582612692565b67ffffffffffffffff81111561375e5761375d61298f565b5b6137688254612ca9565b6137738282856136ac565b600060209050601f8311600181146137a65760008415613794578287015190505b61379e8582613720565b865550613806565b601f1984166137b48661358a565b60005b828110156137dc578489015182556001820191506020850194506020810190506137b7565b868310156137f957848901516137f5601f891682613702565b8355505b6001600288020188555050505b505050505050565b7f5061757361626c653a206e6f7420706175736564000000000000000000000000600082015250565b600061384460148361269d565b915061384f8261380e565b602082019050919050565b6000602082019050818103600083015261387381613837565b9050919050565b7f5061757361626c653a2070617573656400000000000000000000000000000000600082015250565b60006138b060108361269d565b91506138bb8261387a565b602082019050919050565b600060208201905081810360008301526138df816138a3565b9050919050565b600081519050919050565b600082825260208201905092915050565b600061390d826138e6565b61391781856138f1565b93506139278185602086016126ae565b613930816126d8565b840191505092915050565b600060808201905061395060008301876127d9565b61395d60208301866127d9565b61396a604083018561286f565b818103606083015261397c8184613902565b905095945050505050565b60008151905061399681612603565b92915050565b6000602082840312156139b2576139b16125cd565b5b60006139c084828501613987565b91505092915050565b7f4552433732313a206d696e7420746f20746865207a65726f2061646472657373600082015250565b60006139ff60208361269d565b9150613a0a826139c9565b602082019050919050565b60006020820190508181036000830152613a2e816139f2565b9050919050565b7f4552433732313a20746f6b656e20616c7265616479206d696e74656400000000600082015250565b6000613a6b601c8361269d565b9150613a7682613a35565b602082019050919050565b60006020820190508181036000830152613a9a81613a5e565b9050919050565b6000613aac82612744565b91507fffffffffffffffffffffffffffffffffffffffffffffffffffffffffffffffff8203613ade57613add613297565b5b600182019050919050565b7f4e487b7100000000000000000000000000000000000000000000000000000000600052601260045260246000fd5b6000613b2382612744565b9150613b2e83612744565b925082613b3e57613b3d613ae9565b5b828204905092915050565b6000613b5482612744565b9150613b5f83612744565b925082613b6f57613b6e613ae9565b5b828206905092915050565b7f4e487b7100000000000000000000000000000000000000000000000000000000600052603160045260246000fdfea2646970667358221220e9b2f0a5fd3e6f0ab2fc631ab86e42dfe6e660f290479bbd935d9c08659ebe6564736f6c63430008100033",
  "immutableReferences": {},
  "source": "// SPDX-License-Identifier: MIT\r\npragma solidity ^0.8.2;\r\n\r\nimport \"@openzeppelin/contracts/token/ERC721/ERC721.sol\";\r\nimport \"@openzeppelin/contracts/token/ERC721/extensions/ERC721Enumerable.sol\";\r\nimport \"@openzeppelin/contracts/token/ERC721/extensions/ERC721URIStorage.sol\";\r\nimport \"@openzeppelin/contracts/security/Pausable.sol\";\r\nimport \"@openzeppelin/contracts/access/Ownable.sol\";\r\nimport \"@openzeppelin/contracts/token/ERC721/extensions/ERC721Burnable.sol\";\r\nimport \"@openzeppelin/contracts/utils/Counters.sol\";\r\n\r\ncontract BreitlexNFT is ERC721, ERC721Enumerable, ERC721URIStorage, Pausable, Ownable, ERC721Burnable {\r\n    using Counters for Counters.Counter;\r\n\r\n    Counters.Counter private _tokenIdCounter;\r\n\r\n    constructor() ERC721(\"BreitlexNFT\", \"BNFT\") {}\r\n\r\n    function safeMint(address to) public onlyOwner {\r\n        _safeMint(to, _tokenIdCounter.current());\r\n        _tokenIdCounter.increment();\r\n    }\r\n\r\n    function pause() public onlyOwner {\r\n        _pause();\r\n    }\r\n\r\n    function unpause() public onlyOwner {\r\n        _unpause();\r\n    }\r\n\r\n    function _baseURI() internal pure override returns (string memory) {\r\n        return \"\";\r\n    }\r\n\r\n    function _beforeTokenTransfer(address from, address to, uint256 tokenId)\r\n        internal\r\n        whenNotPaused\r\n        override(ERC721, ERC721Enumerable)\r\n    {\r\n        super._beforeTokenTransfer(from, to, tokenId);\r\n    }\r\n\r\n    function _burn(uint256 tokenId) internal override(ERC721, ERC721URIStorage) {\r\n        super._burn(tokenId);\r\n    }\r\n\r\n    function tokenURI(uint256 tokenId)\r\n        public\r\n        view\r\n        override(ERC721, ERC721URIStorage)\r\n        returns (string memory)\r\n    {\r\n        return super.tokenURI(tokenId);\r\n    }\r\n\r\n    function supportsInterface(bytes4 interfaceId)\r\n        public\r\n        view\r\n        override(ERC721, ERC721Enumerable)\r\n        returns (bool)\r\n    {\r\n        return super.supportsInterface(interfaceId);\r\n    }\r\n    \r\n    function mint(\r\n        address _to,\r\n        string memory tokenURI_\r\n    ) external onlyOwner() {\r\n        _safeMint(_to, _tokenIdCounter.current());\r\n        _setTokenURI(_tokenIdCounter.current(), tokenURI_);\r\n        _tokenIdCounter.increment();\r\n    }\r\n\r\n    \r\n}",
  "sourcePath": "D:\\Innovate\\Round2\\nft-marketplace\\contracts\\BreitlexNFT.sol",
  "compiler": {
    "name": "solc",
    "version": "0.8.16+commit.07a7930e.Emscripten.clang"
  },
  "schemaVersion": "3.4.9",
  "updatedAt": "2022-08-31T11:01:29.986Z",
  "devdoc": {
    "kind": "dev",
    "methods": {
      "approve(address,uint256)": {
        "details": "See {IERC721-approve}."
      },
      "balanceOf(address)": {
        "details": "See {IERC721-balanceOf}."
      },
      "burn(uint256)": {
        "details": "Burns `tokenId`. See {ERC721-_burn}. Requirements: - The caller must own `tokenId` or be an approved operator."
      },
      "getApproved(uint256)": {
        "details": "See {IERC721-getApproved}."
      },
      "isApprovedForAll(address,address)": {
        "details": "See {IERC721-isApprovedForAll}."
      },
      "name()": {
        "details": "See {IERC721Metadata-name}."
      },
      "owner()": {
        "details": "Returns the address of the current owner."
      },
      "ownerOf(uint256)": {
        "details": "See {IERC721-ownerOf}."
      },
      "paused()": {
        "details": "Returns true if the contract is paused, and false otherwise."
      },
      "renounceOwnership()": {
        "details": "Leaves the contract without owner. It will not be possible to call `onlyOwner` functions anymore. Can only be called by the current owner. NOTE: Renouncing ownership will leave the contract without an owner, thereby removing any functionality that is only available to the owner."
      },
      "safeTransferFrom(address,address,uint256)": {
        "details": "See {IERC721-safeTransferFrom}."
      },
      "safeTransferFrom(address,address,uint256,bytes)": {
        "details": "See {IERC721-safeTransferFrom}."
      },
      "setApprovalForAll(address,bool)": {
        "details": "See {IERC721-setApprovalForAll}."
      },
      "symbol()": {
        "details": "See {IERC721Metadata-symbol}."
      },
      "tokenByIndex(uint256)": {
        "details": "See {IERC721Enumerable-tokenByIndex}."
      },
      "tokenOfOwnerByIndex(address,uint256)": {
        "details": "See {IERC721Enumerable-tokenOfOwnerByIndex}."
      },
      "totalSupply()": {
        "details": "See {IERC721Enumerable-totalSupply}."
      },
      "transferFrom(address,address,uint256)": {
        "details": "See {IERC721-transferFrom}."
      },
      "transferOwnership(address)": {
        "details": "Transfers ownership of the contract to a new account (`newOwner`). Can only be called by the current owner."
      }
    },
    "version": 1
  },
  "userdoc": {
    "kind": "user",
    "methods": {},
    "version": 1
  }
}