{
  "contractName": "Market",
  "abi": [
    {
      "anonymous": false,
      "inputs": [
        {
          "indexed": false,
          "internalType": "uint256",
          "name": "listtingId",
          "type": "uint256"
        },
        {
          "indexed": false,
          "internalType": "address",
          "name": "seller",
          "type": "address"
        }
      ],
      "name": "Cancel",
      "type": "event"
    },
    {
      "anonymous": false,
      "inputs": [
        {
          "indexed": false,
          "internalType": "uint256",
          "name": "listtingId",
          "type": "uint256"
        },
        {
          "indexed": false,
          "internalType": "address",
          "name": "seller",
          "type": "address"
        },
        {
          "indexed": false,
          "internalType": "address",
          "name": "token",
          "type": "address"
        },
        {
          "indexed": false,
          "internalType": "uint256",
          "name": "tokenId",
          "type": "uint256"
        },
        {
          "indexed": false,
          "internalType": "uint256",
          "name": "price",
          "type": "uint256"
        }
      ],
      "name": "Listed",
      "type": "event"
    },
    {
      "anonymous": false,
      "inputs": [
        {
          "indexed": false,
          "internalType": "uint256",
          "name": "listtingId",
          "type": "uint256"
        },
        {
          "indexed": false,
          "internalType": "address",
          "name": "buyer",
          "type": "address"
        },
        {
          "indexed": false,
          "internalType": "address",
          "name": "token",
          "type": "address"
        },
        {
          "indexed": false,
          "internalType": "uint256",
          "name": "tokenId",
          "type": "uint256"
        },
        {
          "indexed": false,
          "internalType": "uint256",
          "name": "price",
          "type": "uint256"
        }
      ],
      "name": "Sale",
      "type": "event"
    },
    {
      "inputs": [
        {
          "internalType": "address",
          "name": "token",
          "type": "address"
        },
        {
          "internalType": "uint256",
          "name": "tokenId",
          "type": "uint256"
        },
        {
          "internalType": "uint256",
          "name": "price",
          "type": "uint256"
        }
      ],
      "name": "listToken",
      "outputs": [],
      "stateMutability": "nonpayable",
      "type": "function"
    },
    {
      "inputs": [
        {
          "internalType": "uint256",
          "name": "listingId",
          "type": "uint256"
        }
      ],
      "name": "getListing",
      "outputs": [
        {
          "components": [
            {
              "internalType": "enum Market.ListingStatus",
              "name": "status",
              "type": "uint8"
            },
            {
              "internalType": "address",
              "name": "seller",
              "type": "address"
            },
            {
              "internalType": "address",
              "name": "token",
              "type": "address"
            },
            {
              "internalType": "uint256",
              "name": "tokenId",
              "type": "uint256"
            },
            {
              "internalType": "uint256",
              "name": "price",
              "type": "uint256"
            }
          ],
          "internalType": "struct Market.Listing",
          "name": "",
          "type": "tuple"
        }
      ],
      "stateMutability": "view",
      "type": "function",
      "constant": true
    },
    {
      "inputs": [
        {
          "internalType": "uint256",
          "name": "listingId",
          "type": "uint256"
        }
      ],
      "name": "buyToken",
      "outputs": [],
      "stateMutability": "payable",
      "type": "function",
      "payable": true
    },
    {
      "inputs": [
        {
          "internalType": "uint256",
          "name": "listingId",
          "type": "uint256"
        }
      ],
      "name": "cancel",
      "outputs": [],
      "stateMutability": "nonpayable",
      "type": "function"
    }
  ],
  "bytecode": "0x60806040526000805534801561001457600080fd5b50610fcf806100246000396000f3fe60806040526004361061005c576000357c010000000000000000000000000000000000000000000000000000000090048063107a274a146100615780632d296bf11461009e57806340e58ee5146100ba5780637e07590d146100e3575b600080fd5b34801561006d57600080fd5b5061008860048036038101906100839190610a74565b61010c565b6040516100959190610bd0565b60405180910390f35b6100b860048036038101906100b39190610a74565b610234565b005b3480156100c657600080fd5b506100e160048036038101906100dc9190610a74565b61052d565b005b3480156100ef57600080fd5b5061010a60048036038101906101059190610c17565b61078f565b005b6101146109cc565b600160008381526020019081526020016000206040518060a00160405290816000820160009054906101000a900460ff16600281111561015757610156610aa1565b5b600281111561016957610168610aa1565b5b81526020016000820160019054906101000a900473ffffffffffffffffffffffffffffffffffffffff1673ffffffffffffffffffffffffffffffffffffffff1673ffffffffffffffffffffffffffffffffffffffff1681526020016001820160009054906101000a900473ffffffffffffffffffffffffffffffffffffffff1673ffffffffffffffffffffffffffffffffffffffff1673ffffffffffffffffffffffffffffffffffffffff168152602001600282015481526020016003820154815250509050919050565b60006001600083815260200190815260200160002090506000600281111561025f5761025e610aa1565b5b8160000160009054906101000a900460ff16600281111561028357610282610aa1565b5b146102c3576040517f08c379a00000000000000000000000000000000000000000000000000000000081526004016102ba90610cc7565b60405180910390fd5b8060000160019054906101000a900473ffffffffffffffffffffffffffffffffffffffff1673ffffffffffffffffffffffffffffffffffffffff163373ffffffffffffffffffffffffffffffffffffffff1614610355576040517f08c379a000000000000000000000000000000000000000000000000000000000815260040161034c90610d33565b60405180910390fd5b806003015434101561039c576040517f08c379a000000000000000000000000000000000000000000000000000000000815260040161039390610d9f565b60405180910390fd5b8060010160009054906101000a900473ffffffffffffffffffffffffffffffffffffffff1673ffffffffffffffffffffffffffffffffffffffff166323b872dd303384600201546040518463ffffffff167c010000000000000000000000000000000000000000000000000000000002815260040161041d93929190610ddd565b600060405180830381600087803b15801561043757600080fd5b505af115801561044b573d6000803e3d6000fd5b505050508060000160019054906101000a900473ffffffffffffffffffffffffffffffffffffffff1673ffffffffffffffffffffffffffffffffffffffff166108fc82600301549081150290604051600060405180830381858888f193505050501580156104bd573d6000803e3d6000fd5b507ff3debaf22196a6ddf52a60fa71058cd7edf5e25bb98f4e96c994a5d4a9b0dd3e82338360010160009054906101000a900473ffffffffffffffffffffffffffffffffffffffff1684600201548560030154604051610521959493929190610e14565b60405180910390a15050565b60006001600083815260200190815260200160002090508060000160019054906101000a900473ffffffffffffffffffffffffffffffffffffffff1673ffffffffffffffffffffffffffffffffffffffff163373ffffffffffffffffffffffffffffffffffffffff16036105d6576040517f08c379a00000000000000000000000000000000000000000000000000000000081526004016105cd90610ed9565b60405180910390fd5b600060028111156105ea576105e9610aa1565b5b8160000160009054906101000a900460ff16600281111561060e5761060d610aa1565b5b0361064e576040517f08c379a000000000000000000000000000000000000000000000000000000000815260040161064590610cc7565b60405180910390fd5b60028160000160006101000a81548160ff0219169083600281111561067657610675610aa1565b5b02179055508060010160009054906101000a900473ffffffffffffffffffffffffffffffffffffffff1673ffffffffffffffffffffffffffffffffffffffff166323b872dd303384600201546040518463ffffffff167c01000000000000000000000000000000000000000000000000000000000281526004016106fc93929190610ddd565b600060405180830381600087803b15801561071657600080fd5b505af115801561072a573d6000803e3d6000fd5b505050507f8dd3c361eb2366ff27c2db0eb07b9261f1d052570742ab8c9a0c326f37aa576d828260000160019054906101000a900473ffffffffffffffffffffffffffffffffffffffff16604051610783929190610ef9565b60405180910390a15050565b8273ffffffffffffffffffffffffffffffffffffffff166323b872dd3330856040518463ffffffff167c01000000000000000000000000000000000000000000000000000000000281526004016107e893929190610ddd565b600060405180830381600087803b15801561080257600080fd5b505af1158015610816573d6000803e3d6000fd5b5050505060006040518060a001604052806000600281111561083b5761083a610aa1565b5b81526020013373ffffffffffffffffffffffffffffffffffffffff1681526020018573ffffffffffffffffffffffffffffffffffffffff16815260200184815260200183815250905060008081548092919061089690610f51565b919050555080600160008054815260200190815260200160002060008201518160000160006101000a81548160ff021916908360028111156108db576108da610aa1565b5b021790555060208201518160000160016101000a81548173ffffffffffffffffffffffffffffffffffffffff021916908373ffffffffffffffffffffffffffffffffffffffff16021790555060408201518160010160006101000a81548173ffffffffffffffffffffffffffffffffffffffff021916908373ffffffffffffffffffffffffffffffffffffffff16021790555060608201518160020155608082015181600301559050507f723f73331eaee88eec7fc68ef60ab6ed15e4b90d0472b55eb92fa43910bab6dd600054338686866040516109be959493929190610e14565b60405180910390a150505050565b6040518060a00160405280600060028111156109eb576109ea610aa1565b5b8152602001600073ffffffffffffffffffffffffffffffffffffffff168152602001600073ffffffffffffffffffffffffffffffffffffffff16815260200160008152602001600081525090565b600080fd5b6000819050919050565b610a5181610a3e565b8114610a5c57600080fd5b50565b600081359050610a6e81610a48565b92915050565b600060208284031215610a8a57610a89610a39565b5b6000610a9884828501610a5f565b91505092915050565b7f4e487b7100000000000000000000000000000000000000000000000000000000600052602160045260246000fd5b60038110610ae157610ae0610aa1565b5b50565b6000819050610af282610ad0565b919050565b6000610b0282610ae4565b9050919050565b610b1281610af7565b82525050565b600073ffffffffffffffffffffffffffffffffffffffff82169050919050565b6000610b4382610b18565b9050919050565b610b5381610b38565b82525050565b610b6281610a3e565b82525050565b60a082016000820151610b7e6000850182610b09565b506020820151610b916020850182610b4a565b506040820151610ba46040850182610b4a565b506060820151610bb76060850182610b59565b506080820151610bca6080850182610b59565b50505050565b600060a082019050610be56000830184610b68565b92915050565b610bf481610b38565b8114610bff57600080fd5b50565b600081359050610c1181610beb565b92915050565b600080600060608486031215610c3057610c2f610a39565b5b6000610c3e86828701610c02565b9350506020610c4f86828701610a5f565b9250506040610c6086828701610a5f565b9150509250925092565b600082825260208201905092915050565b7f4c697374696e67206973206e6f74206163746976650000000000000000000000600082015250565b6000610cb1601583610c6a565b9150610cbc82610c7b565b602082019050919050565b60006020820190508181036000830152610ce081610ca4565b9050919050565b7f53656c6c657220616e642042757965722063616e6e6f742062652073616d6500600082015250565b6000610d1d601f83610c6a565b9150610d2882610ce7565b602082019050919050565b60006020820190508181036000830152610d4c81610d10565b9050919050565b7f496e73756666696369656e74207061796d656e74000000000000000000000000600082015250565b6000610d89601483610c6a565b9150610d9482610d53565b602082019050919050565b60006020820190508181036000830152610db881610d7c565b9050919050565b610dc881610b38565b82525050565b610dd781610a3e565b82525050565b6000606082019050610df26000830186610dbf565b610dff6020830185610dbf565b610e0c6040830184610dce565b949350505050565b600060a082019050610e296000830188610dce565b610e366020830187610dbf565b610e436040830186610dbf565b610e506060830185610dce565b610e5d6080830184610dce565b9695505050505050565b7f4f6e6c792073656c6c65722063616e20436e63656c20746865206c697374696e60008201527f6700000000000000000000000000000000000000000000000000000000000000602082015250565b6000610ec3602183610c6a565b9150610ece82610e67565b604082019050919050565b60006020820190508181036000830152610ef281610eb6565b9050919050565b6000604082019050610f0e6000830185610dce565b610f1b6020830184610dbf565b9392505050565b7f4e487b7100000000000000000000000000000000000000000000000000000000600052601160045260246000fd5b6000610f5c82610a3e565b91507fffffffffffffffffffffffffffffffffffffffffffffffffffffffffffffffff8203610f8e57610f8d610f22565b5b60018201905091905056fea2646970667358221220af9bedbc090971e6c49d5441b3f46b7679638d8f5da6cf677675b07bc86771de64736f6c63430008100033",
  "immutableReferences": {},
  "source": "// SPDX-License-Identifier: MIT\r\npragma solidity ^0.8.16;\r\n\r\nimport \"./IERC721.sol\";\r\n\r\ncontract Market{\r\n    //public, private, internal, external (only external calls)\r\n\r\n    enum ListingStatus{\r\n        Active,\r\n        Sold,\r\n        Cancelled\r\n    }\r\n\r\n    event Listed(\r\n        uint listtingId,\r\n        address seller,\r\n        address token,\r\n        uint tokenId,\r\n        uint price\r\n    );\r\n\r\n    event Sale(\r\n        uint listtingId,\r\n        address buyer,\r\n        address token,\r\n        uint tokenId,\r\n        uint price\r\n    );\r\n\r\n    event Cancel(\r\n        uint listtingId,\r\n        address seller\r\n    );\r\n\r\n    struct Listing{\r\n        ListingStatus status;\r\n        address seller;\r\n        address token;\r\n        uint tokenId;\r\n        uint price;\r\n    }\r\n\r\n    uint private _listingId = 0;\r\n    //to Store\r\n    mapping(uint => Listing) private _listings;\r\n\r\n    function listToken(address token, uint tokenId, uint price) external {\r\n        IERC721(token).transferFrom(msg.sender, address(this), tokenId);\r\n\r\n        Listing memory listing = Listing(\r\n            ListingStatus.Active,\r\n            msg.sender,         //this will give the address automatically\r\n            token, \r\n            tokenId, \r\n            price\r\n        );\r\n\r\n        _listingId++;\r\n        _listings[_listingId] = listing;\r\n\r\n        emit Listed(_listingId, msg.sender, token, tokenId, price);\r\n    }\r\n\r\n    function getListing(uint listingId) public view returns(Listing memory){  //view makes the operation completely free\r\n        return _listings[listingId];\r\n    }\r\n\r\n    function buyToken(uint listingId) external payable{\r\n        //storage is direct pointer to the store\r\n        Listing storage listing = _listings[listingId];\r\n\r\n        require(listing.status == ListingStatus.Active, \"Listing is not active\");\r\n        require(msg.sender == listing.seller, \"Seller and Buyer cannot be same\");\r\n\r\n        //wei\r\n        require(msg.value >= listing.price, \"Insufficient payment\");\r\n        IERC721(listing.token).transferFrom(address(this), msg.sender, listing.tokenId);\r\n        \r\n        //pay the seller\r\n        payable(listing.seller).transfer(listing.price);\r\n\r\n        emit Sale(listingId, msg.sender, listing.token, listing.tokenId, listing.price);\r\n    }\r\n\r\n    function cancel(uint listingId) public{\r\n        Listing storage listing = _listings[listingId];\r\n\r\n        require(msg.sender != listing.seller, \"Only seller can Cncel the listing\");\r\n        require(listing.status != ListingStatus.Active, \"Listing is not active\");\r\n        \r\n        listing.status = ListingStatus.Cancelled;\r\n        IERC721(listing.token).transferFrom(address(this), msg.sender, listing.tokenId);\r\n\r\n        emit Cancel(listingId, listing.seller);\r\n    }\r\n}",
  "sourcePath": "D:\\Innovate\\Round2\\nft-marketplace\\contracts\\market.sol",
  "compiler": {
    "name": "solc",
    "version": "0.8.16+commit.07a7930e.Emscripten.clang"
  },
  "schemaVersion": "3.4.9",
  "updatedAt": "2022-08-28T15:51:43.383Z",
  "networkType": "ethereum",
  "devdoc": {
    "kind": "dev",
    "methods": {},
    "version": 1
  },
  "userdoc": {
    "kind": "user",
    "methods": {},
    "version": 1
  }
}