{
  "contractName": "nftescrow",
  "abi": [
    {
      "inputs": [],
      "stateMutability": "nonpayable",
      "type": "constructor"
    },
    {
      "inputs": [],
      "name": "buyerAddress",
      "outputs": [
        {
          "internalType": "address payable",
          "name": "",
          "type": "address"
        }
      ],
      "stateMutability": "view",
      "type": "function"
    },
    {
      "inputs": [],
      "name": "nftAddress",
      "outputs": [
        {
          "internalType": "address",
          "name": "",
          "type": "address"
        }
      ],
      "stateMutability": "view",
      "type": "function"
    },
    {
      "inputs": [],
      "name": "projectState",
      "outputs": [
        {
          "internalType": "enum nftescrow.ProjectState",
          "name": "",
          "type": "uint8"
        }
      ],
      "stateMutability": "view",
      "type": "function"
    },
    {
      "inputs": [],
      "name": "sellerAddress",
      "outputs": [
        {
          "internalType": "address payable",
          "name": "",
          "type": "address"
        }
      ],
      "stateMutability": "view",
      "type": "function"
    },
    {
      "inputs": [
        {
          "internalType": "address",
          "name": "operator",
          "type": "address"
        },
        {
          "internalType": "address",
          "name": "from",
          "type": "address"
        },
        {
          "internalType": "uint256",
          "name": "tokenId",
          "type": "uint256"
        },
        {
          "internalType": "bytes",
          "name": "data",
          "type": "bytes"
        }
      ],
      "name": "onERC721Received",
      "outputs": [
        {
          "internalType": "bytes4",
          "name": "",
          "type": "bytes4"
        }
      ],
      "stateMutability": "nonpayable",
      "type": "function"
    },
    {
      "inputs": [
        {
          "internalType": "address",
          "name": "_NFTAddress",
          "type": "address"
        },
        {
          "internalType": "uint256",
          "name": "_TokenID",
          "type": "uint256"
        }
      ],
      "name": "depositNFT",
      "outputs": [],
      "stateMutability": "nonpayable",
      "type": "function"
    },
    {
      "inputs": [],
      "name": "cancelAtNFT",
      "outputs": [],
      "stateMutability": "nonpayable",
      "type": "function"
    },
    {
      "inputs": [
        {
          "internalType": "bool",
          "name": "_state",
          "type": "bool"
        }
      ],
      "name": "cancelBeforeDelivery",
      "outputs": [],
      "stateMutability": "payable",
      "type": "function"
    },
    {
      "inputs": [],
      "name": "depositETH",
      "outputs": [],
      "stateMutability": "payable",
      "type": "function"
    },
    {
      "inputs": [],
      "name": "initiateDelivery",
      "outputs": [],
      "stateMutability": "nonpayable",
      "type": "function"
    },
    {
      "inputs": [],
      "name": "confirmDelivery",
      "outputs": [],
      "stateMutability": "payable",
      "type": "function"
    },
    {
      "inputs": [],
      "name": "getBalance",
      "outputs": [
        {
          "internalType": "uint256",
          "name": "balance",
          "type": "uint256"
        }
      ],
      "stateMutability": "view",
      "type": "function"
    }
  ],
  "bytecode": "0x60806040526000600460006101000a81548160ff0219169083151502179055506000600460016101000a81548160ff02191690831515021790555034801561004657600080fd5b50336000806101000a81548173ffffffffffffffffffffffffffffffffffffffff021916908373ffffffffffffffffffffffffffffffffffffffff1602179055506000600460026101000a81548160ff021916908360068111156100ad576100ac6100b7565b5b02179055506100e6565b7f4e487b7100000000000000000000000000000000000000000000000000000000600052602160045260246000fd5b61121d806100f56000396000f3fe6080604052600436106100c4576000357c0100000000000000000000000000000000000000000000000000000000900480635bf8633a116100815780635bf8633a146101ba5780635e10177b146101e5578063748807ab146101ef5780639b5b9b181461021a578063a1ee418114610243578063f6326fb31461025a576100c4565b806312065fe0146100c9578063150b7a02146100f45780632f9fa7f614610131578063342901a7146101485780633d9b2ae61461016457806344834aca1461018f575b600080fd5b3480156100d557600080fd5b506100de610264565b6040516100eb9190610d8b565b60405180910390f35b34801561010057600080fd5b5061011b60048036038101906101169190610e9f565b610283565b6040516101289190610f62565b60405180910390f35b34801561013d57600080fd5b506101466102b4565b005b610162600480360381019061015d9190610fb5565b61042a565b005b34801561017057600080fd5b50610179610761565b6040516101869190611003565b60405180910390f35b34801561019b57600080fd5b506101a4610785565b6040516101b19190611003565b60405180910390f35b3480156101c657600080fd5b506101cf6107ab565b6040516101dc919061102d565b60405180910390f35b6101ed6107d1565b005b3480156101fb57600080fd5b506102046109e9565b60405161021191906110bf565b60405180910390f35b34801561022657600080fd5b50610241600480360381019061023c91906110da565b6109fc565b005b34801561024f57600080fd5b50610258610bbc565b005b610262610cc2565b005b60003073ffffffffffffffffffffffffffffffffffffffff1631905090565b600063150b7a027c010000000000000000000000000000000000000000000000000000000002905095945050505050565b60018060068111156102c9576102c8611048565b5b600460029054906101000a900460ff1660068111156102eb576102ea611048565b5b146102f557600080fd5b60008054906101000a900473ffffffffffffffffffffffffffffffffffffffff1673ffffffffffffffffffffffffffffffffffffffff163373ffffffffffffffffffffffffffffffffffffffff161461034d57600080fd5b600260009054906101000a900473ffffffffffffffffffffffffffffffffffffffff1673ffffffffffffffffffffffffffffffffffffffff166342842e0e30336003546040518463ffffffff167c01000000000000000000000000000000000000000000000000000000000281526004016103ca9392919061111a565b600060405180830381600087803b1580156103e457600080fd5b505af11580156103f8573d6000803e3d6000fd5b505050506002600460026101000a81548160ff0219169083600681111561042257610421611048565b5b021790555050565b600380600681111561043f5761043e611048565b5b600460029054906101000a900460ff16600681111561046157610460611048565b5b1461046b57600080fd5b600160009054906101000a900473ffffffffffffffffffffffffffffffffffffffff1673ffffffffffffffffffffffffffffffffffffffff163373ffffffffffffffffffffffffffffffffffffffff161480610512575060008054906101000a900473ffffffffffffffffffffffffffffffffffffffff1673ffffffffffffffffffffffffffffffffffffffff163373ffffffffffffffffffffffffffffffffffffffff16145b61051b57600080fd5b60008054906101000a900473ffffffffffffffffffffffffffffffffffffffff1673ffffffffffffffffffffffffffffffffffffffff163373ffffffffffffffffffffffffffffffffffffffff160361058d5781600460016101000a81548160ff0219169083151502179055506105a8565b81600460006101000a81548160ff0219169083151502179055505b60011515600460019054906101000a900460ff1615151480156105de575060011515600460009054906101000a900460ff161515145b1561075d57600260009054906101000a900473ffffffffffffffffffffffffffffffffffffffff1673ffffffffffffffffffffffffffffffffffffffff166342842e0e3060008054906101000a900473ffffffffffffffffffffffffffffffffffffffff166003546040518463ffffffff167c0100000000000000000000000000000000000000000000000000000000028152600401610680939291906111b0565b600060405180830381600087803b15801561069a57600080fd5b505af11580156106ae573d6000803e3d6000fd5b50505050600160009054906101000a900473ffffffffffffffffffffffffffffffffffffffff1673ffffffffffffffffffffffffffffffffffffffff166108fc3073ffffffffffffffffffffffffffffffffffffffff16319081150290604051600060405180830381858888f19350505050158015610731573d6000803e3d6000fd5b5060048060026101000a81548160ff0219169083600681111561075757610756611048565b5b02179055505b5050565b60008054906101000a900473ffffffffffffffffffffffffffffffffffffffff1681565b600160009054906101000a900473ffffffffffffffffffffffffffffffffffffffff1681565b600260009054906101000a900473ffffffffffffffffffffffffffffffffffffffff1681565b60058060068111156107e6576107e5611048565b5b600460029054906101000a900460ff16600681111561080857610807611048565b5b1461081257600080fd5b600160009054906101000a900473ffffffffffffffffffffffffffffffffffffffff1673ffffffffffffffffffffffffffffffffffffffff163373ffffffffffffffffffffffffffffffffffffffff161461086c57600080fd5b600260009054906101000a900473ffffffffffffffffffffffffffffffffffffffff1673ffffffffffffffffffffffffffffffffffffffff166342842e0e30600160009054906101000a900473ffffffffffffffffffffffffffffffffffffffff166003546040518463ffffffff167c010000000000000000000000000000000000000000000000000000000002815260040161090b939291906111b0565b600060405180830381600087803b15801561092557600080fd5b505af1158015610939573d6000803e3d6000fd5b5050505060008054906101000a900473ffffffffffffffffffffffffffffffffffffffff1673ffffffffffffffffffffffffffffffffffffffff166108fc3073ffffffffffffffffffffffffffffffffffffffff16319081150290604051600060405180830381858888f193505050501580156109ba573d6000803e3d6000fd5b506006600460026101000a81548160ff021916908360068111156109e1576109e0611048565b5b021790555050565b600460029054906101000a900460ff1681565b6000806006811115610a1157610a10611048565b5b600460029054906101000a900460ff166006811115610a3357610a32611048565b5b14610a3d57600080fd5b60008054906101000a900473ffffffffffffffffffffffffffffffffffffffff1673ffffffffffffffffffffffffffffffffffffffff163373ffffffffffffffffffffffffffffffffffffffff1614610a9557600080fd5b82600260006101000a81548173ffffffffffffffffffffffffffffffffffffffff021916908373ffffffffffffffffffffffffffffffffffffffff16021790555081600381905550600260009054906101000a900473ffffffffffffffffffffffffffffffffffffffff1673ffffffffffffffffffffffffffffffffffffffff166342842e0e33306003546040518463ffffffff167c0100000000000000000000000000000000000000000000000000000000028152600401610b5a9392919061111a565b600060405180830381600087803b158015610b7457600080fd5b505af1158015610b88573d6000803e3d6000fd5b505050506001600460026101000a81548160ff02191690836006811115610bb257610bb1611048565b5b0217905550505050565b6003806006811115610bd157610bd0611048565b5b600460029054906101000a900460ff166006811115610bf357610bf2611048565b5b14610bfd57600080fd5b60008054906101000a900473ffffffffffffffffffffffffffffffffffffffff1673ffffffffffffffffffffffffffffffffffffffff163373ffffffffffffffffffffffffffffffffffffffff1614610c5557600080fd5b60001515600460009054906101000a900460ff161515148015610c8b575060001515600460019054906101000a900460ff161515145b610c9457600080fd5b6005600460026101000a81548160ff02191690836006811115610cba57610cb9611048565b5b021790555050565b6001806006811115610cd757610cd6611048565b5b600460029054906101000a900460ff166006811115610cf957610cf8611048565b5b14610d0357600080fd5b33600160006101000a81548173ffffffffffffffffffffffffffffffffffffffff021916908373ffffffffffffffffffffffffffffffffffffffff1602179055506003600460026101000a81548160ff02191690836006811115610d6a57610d69611048565b5b021790555050565b6000819050919050565b610d8581610d72565b82525050565b6000602082019050610da06000830184610d7c565b92915050565b600080fd5b600080fd5b600073ffffffffffffffffffffffffffffffffffffffff82169050919050565b6000610ddb82610db0565b9050919050565b610deb81610dd0565b8114610df657600080fd5b50565b600081359050610e0881610de2565b92915050565b610e1781610d72565b8114610e2257600080fd5b50565b600081359050610e3481610e0e565b92915050565b600080fd5b600080fd5b600080fd5b60008083601f840112610e5f57610e5e610e3a565b5b8235905067ffffffffffffffff811115610e7c57610e7b610e3f565b5b602083019150836001820283011115610e9857610e97610e44565b5b9250929050565b600080600080600060808688031215610ebb57610eba610da6565b5b6000610ec988828901610df9565b9550506020610eda88828901610df9565b9450506040610eeb88828901610e25565b935050606086013567ffffffffffffffff811115610f0c57610f0b610dab565b5b610f1888828901610e49565b92509250509295509295909350565b60007fffffffff0000000000000000000000000000000000000000000000000000000082169050919050565b610f5c81610f27565b82525050565b6000602082019050610f776000830184610f53565b92915050565b60008115159050919050565b610f9281610f7d565b8114610f9d57600080fd5b50565b600081359050610faf81610f89565b92915050565b600060208284031215610fcb57610fca610da6565b5b6000610fd984828501610fa0565b91505092915050565b6000610fed82610db0565b9050919050565b610ffd81610fe2565b82525050565b60006020820190506110186000830184610ff4565b92915050565b61102781610dd0565b82525050565b6000602082019050611042600083018461101e565b92915050565b7f4e487b7100000000000000000000000000000000000000000000000000000000600052602160045260246000fd5b6007811061108857611087611048565b5b50565b600081905061109982611077565b919050565b60006110a98261108b565b9050919050565b6110b98161109e565b82525050565b60006020820190506110d460008301846110b0565b92915050565b600080604083850312156110f1576110f0610da6565b5b60006110ff85828601610df9565b925050602061111085828601610e25565b9150509250929050565b600060608201905061112f600083018661101e565b61113c602083018561101e565b6111496040830184610d7c565b949350505050565b6000819050919050565b600061117661117161116c84610db0565b611151565b610db0565b9050919050565b60006111888261115b565b9050919050565b600061119a8261117d565b9050919050565b6111aa8161118f565b82525050565b60006060820190506111c5600083018661101e565b6111d260208301856111a1565b6111df6040830184610d7c565b94935050505056fea26469706673582212208b9b860bb2f32f1b627afda8ef3f6f224c0c2437d44fc96a9c8430dfd72f446d64736f6c63430008100033",
  "immutableReferences": {},
  "source": "/**\r\n * @file nftescrow.sol\r\n * @author Jackson Ng <jackson@jacksonng.org>\r\n * @date created 16th Sep 2021\r\n * @date last modified 18th Sep 2021\r\n */\r\n\r\n//SPDX-License-Identifier: MIT\r\n \r\npragma solidity ^0.8.2;\r\n\r\nimport \"@openzeppelin/contracts/token/ERC721/ERC721.sol\";\r\nimport \"@openzeppelin/contracts/token/ERC721/IERC721Receiver.sol\";\r\n\r\ncontract nftescrow is IERC721Receiver {\r\n    \r\n    enum ProjectState {newEscrow, nftDeposited, cancelNFT, ethDeposited, canceledBeforeDelivery, deliveryInitiated, delivered}\r\n    \r\n    address payable public sellerAddress;\r\n    address payable public buyerAddress;\r\n    address public nftAddress;\r\n    uint256 tokenID;\r\n    bool buyerCancel = false;\r\n    bool sellerCancel = false;\r\n    ProjectState public projectState;\r\n\r\n    constructor()\r\n    {\r\n        sellerAddress = payable(msg.sender);\r\n        projectState = ProjectState.newEscrow;\r\n    }\r\n    \r\n    function onERC721Received( address operator, address from, uint256 tokenId, bytes calldata data ) public override returns (bytes4) {\r\n        return this.onERC721Received.selector;\r\n    }\r\n    \r\n\r\n    function depositNFT(address _NFTAddress, uint256 _TokenID)\r\n        public\r\n        inProjectState(ProjectState.newEscrow)\r\n        onlySeller\r\n    {\r\n        nftAddress = _NFTAddress;\r\n        tokenID = _TokenID;\r\n        ERC721(nftAddress).safeTransferFrom(msg.sender, address(this), tokenID);\r\n        projectState = ProjectState.nftDeposited;\r\n    }\r\n    \r\n    function cancelAtNFT()\r\n        public\r\n        inProjectState(ProjectState.nftDeposited)\r\n        onlySeller\r\n    {\r\n        ERC721(nftAddress).safeTransferFrom(address(this), msg.sender, tokenID);\r\n        projectState = ProjectState.cancelNFT;\r\n    }\r\n  \r\n    function cancelBeforeDelivery(bool _state)\r\n        public\r\n        inProjectState(ProjectState.ethDeposited)\r\n        payable\r\n        BuyerOrSeller\r\n    {\r\n        if (msg.sender == sellerAddress){\r\n            sellerCancel = _state;\r\n        }\r\n        else{\r\n            buyerCancel = _state;\r\n        }\r\n        \r\n        if (sellerCancel == true && buyerCancel == true){\r\n            ERC721(nftAddress).safeTransferFrom(address(this), sellerAddress, tokenID);\r\n            buyerAddress.transfer(address(this).balance);\r\n            projectState = ProjectState.canceledBeforeDelivery;     \r\n        }\r\n    }\r\n    \r\n    function depositETH()\r\n        public\r\n        payable\r\n        inProjectState(ProjectState.nftDeposited)\r\n    {\r\n        buyerAddress = payable(msg.sender);\r\n        projectState = ProjectState.ethDeposited;\r\n    }\r\n    \r\n    function initiateDelivery()\r\n        public\r\n        inProjectState(ProjectState.ethDeposited)\r\n        onlySeller\r\n        noDispute\r\n    {\r\n        projectState = ProjectState.deliveryInitiated;\r\n    }        \r\n    \r\n    function confirmDelivery()\r\n        public\r\n        payable\r\n        inProjectState(ProjectState.deliveryInitiated)\r\n        onlyBuyer\r\n    {\r\n        ERC721(nftAddress).safeTransferFrom(address(this), buyerAddress, tokenID);\r\n        sellerAddress.transfer(address(this).balance);\r\n        projectState = ProjectState.delivered;\r\n    }\r\n        \r\n   \tmodifier condition(bool _condition) {\r\n\t\trequire(_condition);\r\n\t\t_;\r\n\t}\r\n\r\n\tmodifier onlySeller() {\r\n\t\trequire(msg.sender == sellerAddress);\r\n\t\t_;\r\n\t}\r\n\r\n\tmodifier onlyBuyer() {\r\n\t\trequire(msg.sender == buyerAddress);\r\n\t\t_;\r\n\t}\r\n\t\r\n\tmodifier noDispute(){\r\n\t    require(buyerCancel == false && sellerCancel == false);\r\n\t    _;\r\n\t}\r\n\t\r\n\tmodifier BuyerOrSeller() {\r\n\t\trequire(msg.sender == buyerAddress || msg.sender == sellerAddress);\r\n\t\t_;\r\n\t}\r\n\t\r\n\tmodifier inProjectState(ProjectState _state) {\r\n\t\trequire(projectState == _state);\r\n\t\t_;\r\n\t}\r\n\r\n    function getBalance()\r\n        public\r\n        view\r\n        returns (uint256 balance)\r\n    {\r\n        return address(this).balance;\r\n    }\r\n} ",
  "sourcePath": "D:\\Innovate\\Round2\\nft-marketplace\\contracts\\nftescrow.sol",
  "compiler": {
    "name": "solc",
    "version": "0.8.16+commit.07a7930e.Emscripten.clang"
  },
  "schemaVersion": "3.4.9",
  "updatedAt": "2022-08-31T11:01:30.066Z",
  "devdoc": {
    "kind": "dev",
    "methods": {
      "onERC721Received(address,address,uint256,bytes)": {
        "details": "Whenever an {IERC721} `tokenId` token is transferred to this contract via {IERC721-safeTransferFrom} by `operator` from `from`, this function is called. It must return its Solidity selector to confirm the token transfer. If any other value is returned or the interface is not implemented by the recipient, the transfer will be reverted. The selector can be obtained in Solidity with `IERC721Receiver.onERC721Received.selector`."
      }
    },
    "version": 1
  },
  "userdoc": {
    "kind": "user",
    "methods": {},
    "version": 1
  }
}